:0400000002001132B7
:03000B0002006D83
:03006A0002000E83
:03000E0002164A8D
:10006D00C0E0C082C083C007C006C005C004C0D0B8
:10007D0075D000C28DE51C24F65003020241E51C2B
:10008D00240B83F582E51C240E83F583E473AFCC3A
:10009D00C8D8F5020F1C2936000001010102020229
:1000AD000202E518451FFF24FF9294D2957401B505
:1000BD002007E5217003751801751C01020241E549
:1000CD0018451FFF24FF9294D295E4B51D028012AE
:1000DD007401B51D02805D7402B51D0302017F021E
:1000ED0001B80521E522B521028009752401751D90
:1000FD00000201B8752400752980E526B5250F7518
:10010D0028037523FF751D02751A010201B8E52537
:10011D00241FF582E43400F583E0F5280525E52557
:10012D00241FF582E43400F583E0F5230525751DC4
:10013D00010201B8E5297029D5280B752401752117
:10014D0000751D008065752400752980E525241F27
:10015D00F582E43400F583E0F5230525751D018056
:10016D004AE5295523F524E529C313F529751D0104
:10017D008039E5297026D5280B7524017521007568
:10018D001D0080277524007529807402B52805751A
:10019D00230080037523FF751D02800FE52955236C
:1001AD00F524E529C313F529751D02E524600675AF
:1001BD001C02020241751C04020241D294E518454D
:1001CD001FFF24FF9295751C038069D294E5184595
:1001DD001FFF24FF92957401B520087404B5210307
:1001ED00751800751C00804CE51F24FF9294D29564
:1001FD00751C05803FE51F24FF9294D295751C0652
:10020D008032D294E51F24FF9295751C078025D26C
:10021D0094E51F24FF9295751C088018D294E51F54
:10022D0024FF9295751C09800BD294E51F24FF9233
:10023D0095751C007401B51726E59830E021E5167B
:10024D00701DE519241FF582E43401F583E599F05D
:10025D00740FB519028005E51904F5195398FEE5DB
:10026D001870107401B5170BE5167007E5196003CA
:10027D007516017401B5180DE5177009E5167005B1
:10028D00F5195398FE851817E59A30E013E53324D8
:10029D002FF582E43401F583E59BF0539AFE053387
:1002AD00E532B531028018E59A30E113539AFDE538
:1002BD0031242FF582E43402F583E0F59B053105F9
:1002CD000E7421B50E10750E00AE10AF1174012E07
:1002DD00F510E43FF511050F7403B50F34750F00DC
:1002ED00AEBE7F00ACBD8C05E4FC2EF512ED3FF5E6
:1002FD001343BC40900359E0FEA3E0FFC3EE9512FB
:10030D00EF9513500C74FFB51B028005E51B04F52A
:10031D001BD0D0D004D005D006D007D083D082D04A
:10032D00E03275C70075C50075C60075C30075C48C
:10033D000022AF8275C78075F51875C5018FC4751C
:10034D00C30075C65A75C6A50085C20B12032F854D
:10035D000B8222AF8275C78075F51875C5028FC4E3
:10036D0075C3008537C275C65A75C6A50002032F21
:10037D00AF8275C78075F51875C5038FC475C30039
:10038D0075C65A75C6A50002032F75820012037D2E
:10039D00750A00E50A25E0F509E50A75F002A424C1
:1003AD003FF582740335F0F583E0F50D850D378546
:1003BD000982120360E50A75F002A4243FF58274E8
:1003CD000335F0F583E0A3E0FF8F0DE50904F58219
:1003DD00850D37120360050A74F6250A50B522758E
:1003ED00820012037D750A00E50A25E0F509E50A8C
:1003FD0075F002A42422F582741B35F0F583E49385
:10040D00F50D850D37850982120360E50A75F00239
:10041D00A42422F582741B35F0F583E493A3E493B1
:10042D00FF8F0DE50904F582850D37120360050A6E
:10043D0074F6250A50B22275820212033F85820A94
:10044D0074FFB50A031203EC750A00E50A25E0F501
:10045D000985098212033FAF82900007EFF0E4A3F4
:10046D00F0E50904F58212033FAE827F009000078C
:10047D00E0FCA3E0FD900007EF2CF0EE3DA3F0E5CE
:10048D000A75F002A4243FFE740335F0FF900007B7
:10049D00E0FCA3E0FD8E828F83ECF0EDA3F0050A66
:1004AD0074F6250A50A590033FE0FEA3E0FF9003EC
:1004BD005BEEF0EFA3F0900341E0FEA3E0FF9003AD
:1004CD0059EEF0EFA3F0C3EE9428EF94005009908D
:1004DD0003597428F0E4A3F0900359E0FEA3E0FF64
:1004ED00C374C89EE49F500990035974C8F0E4A3E7
:1004FD00F0900343E0FF900353F0BF2800500690A7
:10050D0003537428F0900353E0249B50069003533B
:10051D007464F0900345E0FF900354F0BF03005066
:10052D00069003547403F0900354E024F3500690A6
:10053D000354740CF0900347E0FF900356F0BF0591
:10054D000050069003567405F0900356E024EB50CE
:10055D00069003567414F0900349E0FF900355F094
:10056D00BF060050069003557406F0900355E02425
:10057D00E750069003557418F090034BE0FF90037D
:10058D0057F0BF050050069003577405F0900357C0
:10059D00E024EB50069003577414F090034DE0FFE8
:1005AD00900358F0BF030050069003587403F09069
:1005BD000358E024F55006900358740AF090034F49
:1005CD00E0F52FC394015003752F01E52F24EB5057
:1005DD0003752F1422AE82AF83E4F50EF510F511DD
:1005ED00EEB510FCEFB511F822E532242FF582E4BB
:1005FD003402F58374E7F00532E532242FF582E4F9
:10060D003402F583740EF00532E532242FF582E4C1
:10061D003402F5837455F00532E532242FFEE434AF
:10062D0002FF90011FE0FD8E828F83F074436DF504
:10063D00360532E532242FFEE43402FF900120E02E
:10064D00FD8E828F83F0ED62360532E532242FFE6A
:10065D00E43402FF900121E0FD8E828F83F0ED6284
:10066D00360532E532242FFEE43402FF900122E0FC
:10067D00FD8E828F83F0ED62360532E532242FFE3A
:10068D00E43402FF900123E0FD8E828F83F0ED6252
:10069D00360532E532242FFEE43402FF900124E0CA
:1006AD00FD8E828F83F0ED62360532E532242FFE0A
:1006BD00E43402FF900125E0FD8E828F83F0ED6220
:1006CD00360532E532242FFEE43402FF900126E098
:1006DD00FD8E828F83F0ED62360532E532242FF5E3
:1006ED0082E43402F583E50C543FFFF0EF623605EA
:1006FD0032E532242FFEE43402FF8E828F83E5191A
:10070D00F08E828F83E062360532E532242FF5823A
:10071D00E43402F583E536F0053222E532242FF577
:10072D0082E43402F58374E7F00532E532242FF5C7
:10073D0082E43402F583740EF00532E532242FF590
:10074D0082E43402F583747CF075366A05329000CC
:10075D000AE0FFBF0410E532242FF582E43402F5E0
:10076D0083742BF0800EE532242FF582E43402F5EC
:10077D0083746BF0E532242FF582E43402F583E0C7
:10078D00FF746A6FF5360532E532242FFEE434022C
:10079D00FF90000CE0FD8E828F83F0ED6236053206
:1007AD00E532242FF582E43402F583E4F00532E5D9
:1007BD0032242FF582E43402F583E4F00532E5327C
:1007CD00242FF582E43402F5837407F063360705B0
:1007DD0032E532242FFEE43402FF8E828F83E4F063
:1007ED00E52B30E70F8E828F83E0FD4305028E826D
:1007FD008F83EDF0900005E0FCA3E0EC30E70F8E69
:10080D00828F83E0FD4305018E828F83EDF0900092
:10081D0005E0A3E030E00F8E828F83E0FD430510ED
:10082D008E828F83EDF0900005E0A3E030E10F8E16
:10083D00828F83E0FD4305208E828F83EDF08E82C3
:10084D008F83E062360532E532242FFEE43402FF59
:10085D00900005E0FCA3E053047F8E828F83ECF0C3
:10086D00EC62360532E532242FF582E43402F5834D
:10087D00E52B547FFFF0EF62360532E532242FF57C
:10088D0082E43402F583747FF063367F0532E532FE
:10089D00242FF582E43402F583747FF063367F05EF
:1008AD0032E532242FF582E43402F583E536F00586
:1008BD003222E532242FF582E43402F58374E7F019
:1008CD000532E532242FF582E43402F583740EF0FF
:1008DD000532E532242FF582E43402F583747CF081
:1008ED000532E532242FFEE43402FF90001DE0FCBA
:1008FD00A3E08E828F83ECF0746A6CF5360532E5D9
:10090D0032242FF582E43402F583E4F00532E5322A
:10091D00242FFEE43402FF900003E0FCA3E0A2E7E5
:10092D00CC33CC33CC540153047F8E828F83ECF0C7
:10093D00EC62360532E532242FFEE43402FF9000DE
:10094D0003E0FCA3E053047F8E828F83ECF0EC6216
:10095D00360532E532242FF582E43402F58374072F
:10096D00F06336070532E532242FFEE43402FF8EA4
:10097D00828F83E4F0E52B30E70F8E828F83E0FDCD
:10098D004305028E828F83EDF0900005E0FCA3E01D
:10099D00EC30E70F8E828F83E0FD4305018E828F51
:1009AD0083EDF0900005E0A3E030E00F8E828F83A1
:1009BD00E0FD4305108E828F83EDF0900005E0A3DE
:1009CD00E030E10F8E828F83E0FD4305208E828F14
:1009DD0083EDF08E828F83E062360532E532242F6F
:1009ED00FEE43402FF900005E0FCA3E053047F8E8B
:1009FD00828F83ECF0EC62360532E532242FF582DE
:100A0D00E43402F583E52B547FFFF0EF62360532B7
:100A1D00E532242FF582E43402F583747FF06336DA
:100A2D007F0532E532242FF582E43402F583747F9D
:100A3D00F063367F0532E532242FF582E43402F57A
:100A4D0083E536547FF0053222E532242FF582E41A
:100A5D003402F58374B4F00532E532242FF582E4C7
:100A6D003402F583E52DF0744B652DF5360532E531
:100A7D0032242FF582E43402F583E52EF0E52E6263
:100A8D00360532E532242FF582E43402F583E5365E
:100A9D00F0053222E532242FF582E43402F5837419
:100AAD00E5F00532E532242FF582E43402F5837446
:100ABD000FF00532E532242FF582E43402F583740C
:100ACD0005F00532E532242FF582E43402F5837406
:100ADD0049F00532E532242FF582E43402F58374B2
:100AED004BF00532E532242FF582E43402F58374A0
:100AFD001FF075360D0532750D00900015E0FEA343
:100B0D00E0FFEE30E703750D04EF30E703430D080A
:100B1D00900017E0FEA3E0FFEE30E703430D10EF6A
:100B2D0030E703430D2090001DE0FEA3E0EE30E71B
:100B3D0003430D40E532242FF582E43402F583E5BD
:100B4D000DF0740D650DF5360532E532242FF58265
:100B5D00E43402F5837457F06336570532E53224D9
:100B6D002FF582E43402F5837404F0633604053204
:100B7D00E532242FFEE43402FF900015E0FCA3E0E3
:100B8D0053047F8E828F83ECF0EC62360532E532B2
:100B9D00242FFEE43402FF900015E0A3E0FD530581
:100BAD007F8D048E828F83ECF0EC62360532E53258
:100BBD00242FFEE43402FF900017E0FCA3E0530461
:100BCD007F8E828F83ECF0EC62360532E532242F76
:100BDD00FEE43402FF900017E0A3E0FD53057F8D86
:100BED00048E828F83ECF0EC62360532E532242FD1
:100BFD00FEE43402FF90001DE0FCA3E053047F8E61
:100C0D00828F83ECF0EC62360532E532242FF582CB
:100C1D00E43402F583E536F0053222E53530E7118F
:100C2D0090000DE4F0F53690000EF0E535547FF5AB
:100C3D002D90000DE0FF24F8500122EF240A83F5DA
:100C4D0082EF240C83F583E47366C7D8EEEB17436C
:100C5D00540C0C0C120F1010107482B53502802834
:100C6D007483B53502802F74E5B53502803674ED89
:100C7D00B53502803A74EFB53502800122E5356253
:100C8D003690000D7401F022E535623690000D743A
:100C9D0004F075300122E535623690000D7405F0D3
:100CAD0075300122E535623690000D7406F022E5AF
:100CBD0035623690000D7406F022E5356236E53565
:100CCD0024FEF53090000D7402F022E53562369069
:100CDD00000EE0242FF582E43403F583E535F09022
:100CED00000EE02401F0E053E00FF090000EE0FF65
:100CFD00B5300280012274FFB536028003020FE584
:100D0D0090032FE0FFBF7C028003020FDF900330C2
:100D1D00E0FFBF2B03020DB5BF2F03020E13BF67FC
:100D2D0003020F3CBF6B028009BF6F03020EA702C7
:100D3D000FD390000DE4F0900335E0FF530730E43E
:100D4D00C454F0CFC4CF6FCF54F0CF6FFE900005D9
:100D5D00EFF0EEA3F0900335E030E00A900005745B
:100D6D00804FF0EEA3F0900336E0FF900005E0FD1C
:100D7D00A3E0FE7C00900005EF4DF0EC4EA3F0904B
:100D8D000337E0FF900009F0900335E030E1079064
:100D9D00000974804FF090000A7405F090000B74F8
:100DAD0001F0752E40020A5690000DE4F0900335C7
:100DBD00E0FF530730E4C454F0CFC4CF6FCF54F0ED
:100DCD00CF6FFE900005EFF0EEA3F0900335E0300D
:100DDD00E00A90000574804FF0EEA3F0900336E02A
:100DED00FF900005E0FDA3E0FE7C00900005EF4DB7
:100DFD00F0EC4EA3F090000A7404F090000B740117
:100E0D00F0F52E020A5690000DE4F0900332E0FF4B
:100E1D00E45401A2E0CF13CF13CFFE900333E0FDD6
:100E2D007C00900003ED4FF0EC4EA3F0900335E005
:100E3D00FF530730E4C454F0CFC4CF6FCF54F0CF7D
:100E4D006FFE900005EFF0EEA3F0900335E030E07B
:100E5D000A90000574804FF0EEA3F0900336E0FF8A
:100E6D00900005E0FDA3E0FE7C00900005EF4DF045
:100E7D00EC4EA3F0900337E0FF900009F09003359E
:100E8D00E030E10790000974804FF090000A740182
:100E9D00F090000BF0F52E020A5690000DE4F09044
:100EAD000332E0FFE45401A2E0CF13CF13CFFE9045
:100EBD000333E0FD7C00900003ED4FF0EC4EA3F00A
:100ECD00900335E0FF530730E4C454F0CFC4CF6F27
:100EDD00CF54F0CF6FFE900005EFF0EEA3F090032E
:100EED0035E030E00A90000574804FF0EEA3F090ED
:100EFD000336E0FF900005E0FDA3E0FE7C009000CE
:100F0D0005EF4DF0EC4EA3F0900337E0FF90000994
:100F1D00F0900335E030E10790000974804FF090B8
:100F2D00000A7402F090000B14F0F52E020A569090
:100F3D00000DE4F0900332E0FFE45401A2E0CF1382
:100F4D00CF13CFFE900333E0FD7C00900003ED4FF7
:100F5D00F0EC4EA3F0900335E0FF530730E4C4549A
:100F6D00F0CFC4CF6FCF54F0CF6FFE900005EFF0F0
:100F7D00EEA3F0900335E030E00A90000574804F49
:100F8D00F0EEA3F0900336E0FF900005E0FDA3E046
:100F9D00FE7C00900005EF4DF0EC4EA3F090033772
:100FAD00E0FF900009F0900335E030E10790000973
:100FBD0074804FF090000A7403F090000B7401F0F0
:100FCD00752E40020A56752E7F120A5690000DE4BA
:100FDD00F022752E7F020A5690000DE4F02290004B
:100FED000DE4F0E535623690000EE02401F0E0539B
:100FFD00E00FF090000EE0FFB5300280012274FF8B
:10100D00B53602800122751F012290000DE4F0E536
:10101D0035623690000EE02401F0E053E00FF090C1
:10102D00000EE0FFB5300280012274FFB53602805C
:10103D000122751F0022E5356236E53524FEF530B7
:10104D0090000D7407F022E535623690000EE02415
:10105D002FF582E43403F583E535F090000EE0249E
:10106D0001F0E053E00FF090000EE0FFB53002808C
:10107D00012274FFB53602800122740DB530028055
:10108D00012290032FE0FFBF010280012290033067
:10109D00E0FFBF0502800122900331E06001229044
:1010AD000333E030E008900334E04480FFF0900318
:1010BD0033E030E108900335E04480FFF0900333D6
:1010CD00E030E208900336E04480FFF0900333E017
:1010DD0030E308900337E04480FFF0900333E030B5
:1010ED00E408900338E04480FFF0900333E030E5EE
:1010FD0008900339E04480FFF0900333E030E608B8
:10110D0090033AE04480FFF0900334E0FF7E0090BE
:10111D000335E0FCE42FFFEC3EFE90000FEFF0EE08
:10112D00A3F0900336E0FD7C00900337E0FA7B00DE
:10113D00900011EB2DF0EA3CA3F0900338E0FD9008
:10114D000339E0FAE42DFDEA3CFC900013EDF0ECE0
:10115D00A3F090033AE0FA7B00900019EAF0EBA3BC
:10116D00F0900332E0F9B92155BA8052BB004FBF60
:10117D005705BE0402800CBFFF05BEFF028004EFC1
:10118D004E703B90035BE0FEA3E0FFEDB50606EC71
:10119D00B507028006BDFF26BCFF2390001B74011E
:1011AD00F0E4A3F0900015F0A3F0900017EEF0EF2F
:1011BD00A3F090001D7480F0E4A3F0120AA1900337
:1011CD0032E0FFBF2151900019E0FEA3E0FFBE40C9
:1011DD0046BF004390000FE0FEA3E0FFBE5705BFE2
:1011ED000402800CBEFF05BFFF028004EE4F702786
:1011FD00900013E0FEA3E0FF90035BE0FCA3E0FD95
:10120D00EEB50406EFB505028006BEFF0ABFFF0767
:10121D0090001BE4F0A3F0900332E0FFBF216A9031
:10122D000019E0F5F0A3E045F0705E90001BE0FEC4
:10123D00A3E0FFBE0153BF0050900011E0FEA3E0FC
:10124D00FFC3EE940AEF94005039EE2EFCEF33FD00
:10125D00EC243FF582ED3403F583E0FCA3E0FD9033
:10126D000013ECF0EDA3F0900015EEF0EFA3F0906D
:10127D000017ECF0EDA3F090001DE4F0A3F0120ABE
:10128D00A18006752E01120A56900332E0FFBF2091
:10129D005090001BE0FEA3E0FFBE0145BF00429051
:1012AD000011E0FEA3E0FFC3EE940AEF9400502B73
:1012BD00EE2EFEEF33FFEE243FFEEF3403FF9000E2
:1012CD0013E0FCA3E0FD8E828F83ECF0EDA3F075AF
:1012DD002E7F120A56120397020444752E01020A3C
:1012ED005622E534B5330122E534242FF582E4345A
:1012FD0001F583E0F5350534E532242FF582E4342C
:10130D0002F583E535F00532120C2880D5750900FC
:10131D00C3E5099519501CE509241FFEE43401FFAE
:10132D008E828F83E0901B3693FD8E828F83F00526
:10133D000980DD750900752AFFC3E509951950620D
:10134D00E509241FF582E43401F583E0FFBF400079
:10135D00504CEF0303543FFE740F5EF50D702A538E
:10136D000703EF030354C0FFE509FE04FD3395E0C9
:10137D00FCED241FF582EC3401F583E0543F4FF56D
:10138D002B74022EF509752A007401B50D02800526
:10139D007402B50DA4AF0974022FF509809B0509E0
:1013AD00809722900003E0FEA3E0FFC3747F9EE4CC
:1013BD009F5055E527241FF582E43400F58374060C
:1013CD00F00527E527241FFEE43400FF8E828F836E
:1013DD0074C0F0900003E0A3E0FD53053F8D04437E
:1013ED0004C08E828F83ECF08C360527E527241FF1
:1013FD00FEE43400FF900003E0FCA3E0FD8E828F3D
:10140D0083ECF0EC6236802CE527241FF582E43462
:10141D0000F5837405F00527E527241FFEE434004D
:10142D00FF900003E0FCA3E0FD53047F8E828F83C9
:10143D00ECF08C36052790000AE0FFBF0110E52780
:10144D00241FF582E43400F58374E4F0800EE52763
:10145D00241FF582E43400F58374ECF0E527241F96
:10146D00FEE43400FF8E828F83E0FD900005E0A343
:10147D00E0FB74035B42058E828F83EDF0ED6236E7
:10148D000527E527241FFEE43400FF900005E0FC4E
:10149D00A3E0FD8E828F83ECF0EC62360527900081
:1014AD000AE0FFBF010FE527241FF582E43400F5A4
:1014BD0083E4F08013E527241FFEE43400FF900041
:1014CD0009E0FD8E828F83F0E527241FF582E43439
:1014DD0000F583E062360527E527241FF582E43405
:1014ED0000F583E536F0052785272622E527241FFD
:1014FD00F582E43400F5837404F00527900001E0D3
:10150D00FFBF100EE527241FF582E43400F5837428
:10151D0078F0900001E0FFBF120EE527241FF58241
:10152D00E43400F5837474F0900001E0FFBF150EF4
:10153D00E527241FF582E43400F583747CF0E5275C
:10154D00241FFEE43400FF8E828F83E0FD900005A2
:10155D00E0A3E0FB74035B42058E828F83EDF08D7B
:10156D00360527E527241FFEE43400FF900005E033
:10157D00FCA3E0FD8E828F83ECF0EC6236052790A4
:10158D000001E0FFBF1013E527241FF582E43400AE
:10159D00F58374E0452CFFF08013E527241FFEE44E
:1015AD003400FF900009E0FD8E828F83F0E5272443
:1015BD001FF582E43400F583E062360527E5272424
:1015CD001FF582E43400F583E536F00527852726DF
:1015DD0022E527241FF582E43400F5837403F0051A
:1015ED0027E527241FF582E43400F583E4F0052771
:1015FD00E527241FF582E43400F583E4F00527E5A3
:10160D0027241FF582E43400F583E4F005278527B0
:10161D002622051E7401B51F0BE51E30E703D2937C
:10162D0022C2932290001BE0FEA3E0FFBE010DBF7E
:10163D00000AE51E30E603D29322C2932275900272
:10164D0075B00275C80075BA8090FE00E4F0A30471
:10165D00F075BA007591057592FAF5B175B2FE7512
:10166D00C90075CAFF751C00751D00751F00F5209A
:10167D0075221175210075240075230075180075EC
:10168D00250075260075270075280075290075172A
:10169D000075160075310075320075330075340014
:1016AD0090000DE4F0900001F090000BF090001B05
:1016BD00F0A3F0F51A758E44F589758AC4758CFF03
:1016CD00758810D2A9759850758BE8758DFF438874
:1016DD0040759A1275D79875D6FF438E1043BA8010
:1016ED0090FEA8743FF053BA7F75DE2F75BC821241
:1016FD000444D2AFD2B49000641205E21212EF127C
:10170D00161F9000011205E2900001E0FF24E94050
:10171D00EBEF240A83F582EF241B83F583E4735AE0
:10172D00B7E82C093E6CB00909C2F0090909021A83
:10173D0068B80C687BC917171718171818181717DA
:10174D001818171717191919191A1A1A1AD2937571
:10175D00160075200075221190000BE0FFBF019C53
:10176D0090000AE0FFBF01069000017401F0BF0276
:10177D00069000017405F0BF0306900001740AF095
:10178D00BF040E900001740FF0900358E09000021A
:10179D00F0BF050280030217099000017414F09048
:1017AD000358E0900002F002170990000BE4F07569
:1017BD002001752211F50A900357E0FFC3E50A9F3A
:1017CD0050071213B0050A80EE751A0075160090B9
:1017DD0000017402F0750C000217097401B51A05A9
:1017ED00900001E4F07401B516028003021709752B
:1017FD001600050CC3E52F950C40030217091213B3
:10180D001AE52A6003021709C29390001D742FF088
:10181D00E4A3F01208BF9000017403F002170974DD
:10182D0001B51A028003021709900001E4F00217B6
:10183D000990000BE4F0752001752211F50A900353
:10184D0057E0FFC3E50A9F50071213B0050A80EE5B
:10185D00751A009000017406F0750C0002170974DA
:10186D0001B51A05900001E4F07401B5160280036C
:10187D00021709751600050CC3E52F950C400302E0
:10188D00170912131AE52A6003021709C293900073
:10189D001D746BF0E4A3F01208BF9000017407F003
:1018AD000217097401B51A0280030217099000018D
:1018BD00E4F002170990000BE4F075200175221178
:1018CD00F50A900357E0FFC3E50A9F50071213B0C6
:1018DD00050A80EE751A00900001740BF0750C006E
:1018ED000217097401B51A0280030217099000014D
:1018FD00E4F002170990000BE4F0752C07F520F5C4
:10190D002B7522159000017410F0021709750A004D
:10191D00900354E0FFC3E50A9F50071215DE050A38
:10192D0080EE750A00900356E0FFC3E50A9F50074D
:10193D001214F9050A80EE750A00900355E0FFC3F5
:10194D00E50A9F50071215DE050A80EE751A009004
:10195D0000017411F0750C00021709050C7414B513
:10196D000C05751B00C2937401B51A028003021792
:10197D0009750C00152CD293900353E0C3951B50A1
:10198D0009E52BFF25E0F52B800AE52BFF25E0F57A
:10199D002B432B0174FFB52C099000017412F0023A
:1019AD0017099000017410F0021709900009E52B3A
:1019BD00F0750A00900354E0FFC3E50A9F5007122B
:1019CD0015DE050A80EE750A00900356E0FFC3E5AB
:1019DD000A9F50071214F9050A80EE750A0090034C
:1019ED0055E0FFC3E50A9F50071215DE050A80EE8C
:1019FD00751A009000017413F0750C00021709059B
:101A0D000C7414B50C05751B00C2937401B51A0244
:101A1D008003021709750C00D293900353E0C39510
:101A2D001B501090000CE4F0120728900001E4F018
:101A3D00021709900002E0FFE0701190000C740491
:101A4D00F0120728900001E4F0021709EF1490003E
:101A5D0002F0900001740FF002170990000BE4F0F2
:101A6D00F5207522159000017415F0021709750AFD
:101A7D0000900354E0FFC3E50A9F50071215DE05E1
:101A8D000A80EE750A00900356E0FFC3E50A9F50E9
:101A9D00071214F9050A80EE750A00900355E0FF50
:101AAD00C3E50A9F50071215DE050A80EE751A0070
:101ABD009000017416F0750C00021709050C7414D2
:101ACD00B50C05751B00C2937401B51A0280030293
:101ADD001709750C00D293900353E0FFC3951B506B
:101AED0008900001E4F0021709900002E0FFE07099
:101AFD0011900001E4F090000C7402F0120728021E
:101B0D001709EF14900002F09000017414F0021701
:011B1D0009BE
:101B220001003C0028000300050006000500030038
:101B320001000000FFFFFFFFFFFFFFFFFFFFFFFFAE
:101B4200FFFFFF40FFFFFFFFFFFFFF33FFFFFF34F9
:101B5200FF3536FFFFFFFFFFFFFFFF3AFFFFFF3BAF
:101B6200FF3C37FFFFFFFF3FFF3D38FFFF3E39FFDE
:101B7200FFFFFFFFFFFFFFFFFFFFFF24FFFFFF232A
:101B8200FF2221FFFFFFFF1FFF1E20FFFF1D1CFF83
:101B92001BFFFFFFFFFFFF19FF181AFFFF1716FFBA
:101BA20015FFFFFFFF2514FF13FFFFFF32FFFFFFAB
:101BB200FFFFFFFFFFFFFFFFFFFFFFFFFFFFFF0E24
:101BC200FF0D0CFFFFFFFF0AFF090BFFFF0807FFD6
:101BD20006FFFFFFFFFFFF04FF0305FFFF0201FFF8
:101BE20000FFFFFFFF0F10FF11FFFFFF12FFFFFFBC
:101BF200FFFFFFFFFFFFFFFFFF2B30FFFF2A2FFF3B
:101C020031FFFFFFFF292EFF2DFFFFFF2CFFFFFFFC
:101C1200FFFFFFFF42FF28FF27FFFFFF26FFFFFF17
:101C2200FFFFFFFF41FFFFFFFFFFFFFFFFFFFFFF80
:041C3200FFFFFFFFB2
:06004000E478FFF6D8FD94
:10001E007900E94400601B7A00901C36785D75A06B
:10002E0003E493F2A308B8000205A0D9F4DAF2753E
:02003E00A0FF21
:100046007800E84400600A790175A000E4F309D855
:10005600FC785CE84403600C7904900001E4F0A3AA
:04006600D8FCD9FAEF
:0D001100758137121B1EE582600302000E90
:041B1E0075820022AA
:00000001FF
